{
  "contractName": "RaribleToken",
  "abi": [
    {
      "inputs": [],
      "stateMutability": "nonpayable",
      "type": "constructor"
    },
    {
      "anonymous": false,
      "inputs": [
        {
          "indexed": true,
          "internalType": "address",
          "name": "owner",
          "type": "address"
        },
        {
          "indexed": true,
          "internalType": "address",
          "name": "approved",
          "type": "address"
        },
        {
          "indexed": true,
          "internalType": "uint256",
          "name": "tokenId",
          "type": "uint256"
        }
      ],
      "name": "Approval",
      "type": "event"
    },
    {
      "anonymous": false,
      "inputs": [
        {
          "indexed": true,
          "internalType": "address",
          "name": "owner",
          "type": "address"
        },
        {
          "indexed": true,
          "internalType": "address",
          "name": "operator",
          "type": "address"
        },
        {
          "indexed": false,
          "internalType": "bool",
          "name": "approved",
          "type": "bool"
        }
      ],
      "name": "ApprovalForAll",
      "type": "event"
    },
    {
      "anonymous": false,
      "inputs": [
        {
          "indexed": true,
          "internalType": "address",
          "name": "from",
          "type": "address"
        },
        {
          "indexed": true,
          "internalType": "address",
          "name": "to",
          "type": "address"
        },
        {
          "indexed": true,
          "internalType": "uint256",
          "name": "tokenId",
          "type": "uint256"
        }
      ],
      "name": "Transfer",
      "type": "event"
    },
    {
      "inputs": [
        {
          "internalType": "uint256",
          "name": "",
          "type": "uint256"
        }
      ],
      "name": "Items",
      "outputs": [
        {
          "internalType": "uint256",
          "name": "id",
          "type": "uint256"
        },
        {
          "internalType": "address",
          "name": "creator",
          "type": "address"
        },
        {
          "internalType": "string",
          "name": "uri",
          "type": "string"
        }
      ],
      "stateMutability": "view",
      "type": "function",
      "constant": true
    },
    {
      "inputs": [
        {
          "internalType": "address",
          "name": "to",
          "type": "address"
        },
        {
          "internalType": "uint256",
          "name": "tokenId",
          "type": "uint256"
        }
      ],
      "name": "approve",
      "outputs": [],
      "stateMutability": "nonpayable",
      "type": "function"
    },
    {
      "inputs": [
        {
          "internalType": "address",
          "name": "owner",
          "type": "address"
        }
      ],
      "name": "balanceOf",
      "outputs": [
        {
          "internalType": "uint256",
          "name": "",
          "type": "uint256"
        }
      ],
      "stateMutability": "view",
      "type": "function",
      "constant": true
    },
    {
      "inputs": [
        {
          "internalType": "uint256",
          "name": "tokenId",
          "type": "uint256"
        }
      ],
      "name": "getApproved",
      "outputs": [
        {
          "internalType": "address",
          "name": "",
          "type": "address"
        }
      ],
      "stateMutability": "view",
      "type": "function",
      "constant": true
    },
    {
      "inputs": [
        {
          "internalType": "address",
          "name": "owner",
          "type": "address"
        },
        {
          "internalType": "address",
          "name": "operator",
          "type": "address"
        }
      ],
      "name": "isApprovedForAll",
      "outputs": [
        {
          "internalType": "bool",
          "name": "",
          "type": "bool"
        }
      ],
      "stateMutability": "view",
      "type": "function",
      "constant": true
    },
    {
      "inputs": [],
      "name": "name",
      "outputs": [
        {
          "internalType": "string",
          "name": "",
          "type": "string"
        }
      ],
      "stateMutability": "view",
      "type": "function",
      "constant": true
    },
    {
      "inputs": [
        {
          "internalType": "uint256",
          "name": "tokenId",
          "type": "uint256"
        }
      ],
      "name": "ownerOf",
      "outputs": [
        {
          "internalType": "address",
          "name": "",
          "type": "address"
        }
      ],
      "stateMutability": "view",
      "type": "function",
      "constant": true
    },
    {
      "inputs": [
        {
          "internalType": "address",
          "name": "from",
          "type": "address"
        },
        {
          "internalType": "address",
          "name": "to",
          "type": "address"
        },
        {
          "internalType": "uint256",
          "name": "tokenId",
          "type": "uint256"
        }
      ],
      "name": "safeTransferFrom",
      "outputs": [],
      "stateMutability": "nonpayable",
      "type": "function"
    },
    {
      "inputs": [
        {
          "internalType": "address",
          "name": "from",
          "type": "address"
        },
        {
          "internalType": "address",
          "name": "to",
          "type": "address"
        },
        {
          "internalType": "uint256",
          "name": "tokenId",
          "type": "uint256"
        },
        {
          "internalType": "bytes",
          "name": "_data",
          "type": "bytes"
        }
      ],
      "name": "safeTransferFrom",
      "outputs": [],
      "stateMutability": "nonpayable",
      "type": "function"
    },
    {
      "inputs": [
        {
          "internalType": "address",
          "name": "operator",
          "type": "address"
        },
        {
          "internalType": "bool",
          "name": "approved",
          "type": "bool"
        }
      ],
      "name": "setApprovalForAll",
      "outputs": [],
      "stateMutability": "nonpayable",
      "type": "function"
    },
    {
      "inputs": [
        {
          "internalType": "bytes4",
          "name": "interfaceId",
          "type": "bytes4"
        }
      ],
      "name": "supportsInterface",
      "outputs": [
        {
          "internalType": "bool",
          "name": "",
          "type": "bool"
        }
      ],
      "stateMutability": "view",
      "type": "function",
      "constant": true
    },
    {
      "inputs": [],
      "name": "symbol",
      "outputs": [
        {
          "internalType": "string",
          "name": "",
          "type": "string"
        }
      ],
      "stateMutability": "view",
      "type": "function",
      "constant": true
    },
    {
      "inputs": [
        {
          "internalType": "address",
          "name": "from",
          "type": "address"
        },
        {
          "internalType": "address",
          "name": "to",
          "type": "address"
        },
        {
          "internalType": "uint256",
          "name": "tokenId",
          "type": "uint256"
        }
      ],
      "name": "transferFrom",
      "outputs": [],
      "stateMutability": "nonpayable",
      "type": "function"
    },
    {
      "inputs": [
        {
          "internalType": "string",
          "name": "uri",
          "type": "string"
        }
      ],
      "name": "createItem",
      "outputs": [
        {
          "internalType": "uint256",
          "name": "",
          "type": "uint256"
        }
      ],
      "stateMutability": "nonpayable",
      "type": "function"
    },
    {
      "inputs": [
        {
          "internalType": "uint256",
          "name": "tokenId",
          "type": "uint256"
        }
      ],
      "name": "tokenURI",
      "outputs": [
        {
          "internalType": "string",
          "name": "",
          "type": "string"
        }
      ],
      "stateMutability": "view",
      "type": "function",
      "constant": true
    }
  ],
  "bytecode": "0x60806040523480156200001157600080fd5b506040518060400160405280600c81526020017f52617269626c65546f6b656e00000000000000000000000000000000000000008152506040518060400160405280600281526020017f5241000000000000000000000000000000000000000000000000000000000000815250816000908051906020019062000096929190620000b8565b508060019080519060200190620000af929190620000b8565b505050620001cd565b828054620000c69062000168565b90600052602060002090601f016020900481019282620000ea576000855562000136565b82601f106200010557805160ff191683800117855562000136565b8280016001018555821562000136579182015b828111156200013557825182559160200191906001019062000118565b5b50905062000145919062000149565b5090565b5b80821115620001645760008160009055506001016200014a565b5090565b600060028204905060018216806200018157607f821691505b602082108114156200019857620001976200019e565b5b50919050565b7f4e487b7100000000000000000000000000000000000000000000000000000000600052602260045260246000fd5b61275280620001dd6000396000f3fe608060405234801561001057600080fd5b50600436106100f55760003560e01c806342842e0e11610097578063a22cb46511610066578063a22cb465146102ac578063b88d4fde146102c8578063c87b56dd146102e4578063e985e9c514610314576100f5565b806342842e0e146102125780636352211e1461022e57806370a082311461025e57806395d89b411461028e576100f5565b8063095ea7b3116100d3578063095ea7b31461017857806317b47cc41461019457806323b872dd146101c65780633d54eebb146101e2576100f5565b806301ffc9a7146100fa57806306fdde031461012a578063081812fc14610148575b600080fd5b610114600480360381019061010f9190611a70565b610344565b6040516101219190611df9565b60405180910390f35b610132610426565b60405161013f9190611e14565b60405180910390f35b610162600480360381019061015d9190611b03565b6104b8565b60405161016f9190611d92565b60405180910390f35b610192600480360381019061018d9190611a34565b61053d565b005b6101ae60048036038101906101a99190611b03565b610655565b6040516101bd93929190611ff1565b60405180910390f35b6101e060048036038101906101db919061192e565b610727565b005b6101fc60048036038101906101f79190611ac2565b610787565b6040516102099190611fd6565b60405180910390f35b61022c6004803603810190610227919061192e565b610869565b005b61024860048036038101906102439190611b03565b610889565b6040516102559190611d92565b60405180910390f35b610278600480360381019061027391906118c9565b61093b565b6040516102859190611fd6565b60405180910390f35b6102966109f3565b6040516102a39190611e14565b60405180910390f35b6102c660048036038101906102c191906119f8565b610a85565b005b6102e260048036038101906102dd919061197d565b610a9b565b005b6102fe60048036038101906102f99190611b03565b610afd565b60405161030b9190611e14565b60405180910390f35b61032e600480360381019061032991906118f2565b610ba5565b60405161033b9190611df9565b60405180910390f35b60007f80ac58cd000000000000000000000000000000000000000000000000000000007bffffffffffffffffffffffffffffffffffffffffffffffffffffffff1916827bffffffffffffffffffffffffffffffffffffffffffffffffffffffff1916148061040f57507f5b5e139f000000000000000000000000000000000000000000000000000000007bffffffffffffffffffffffffffffffffffffffffffffffffffffffff1916827bffffffffffffffffffffffffffffffffffffffffffffffffffffffff1916145b8061041f575061041e82610c39565b5b9050919050565b6060600080546104359061222e565b80601f01602080910402602001604051908101604052809291908181526020018280546104619061222e565b80156104ae5780601f10610483576101008083540402835291602001916104ae565b820191906000526020600020905b81548152906001019060200180831161049157829003601f168201915b5050505050905090565b60006104c382610ca3565b610502576040517f08c379a00000000000000000000000000000000000000000000000000000000081526004016104f990611f56565b60405180910390fd5b6004600083815260200190815260200160002060009054906101000a900473ffffffffffffffffffffffffffffffffffffffff169050919050565b600061054882610889565b90508073ffffffffffffffffffffffffffffffffffffffff168373ffffffffffffffffffffffffffffffffffffffff1614156105b9576040517f08c379a00000000000000000000000000000000000000000000000000000000081526004016105b090611f96565b60405180910390fd5b8073ffffffffffffffffffffffffffffffffffffffff166105d8610d0f565b73ffffffffffffffffffffffffffffffffffffffff161480610607575061060681610601610d0f565b610ba5565b5b610646576040517f08c379a000000000000000000000000000000000000000000000000000000000815260040161063d90611ed6565b60405180910390fd5b6106508383610d17565b505050565b60076020528060005260406000206000915090508060000154908060010160009054906101000a900473ffffffffffffffffffffffffffffffffffffffff16908060020180546106a49061222e565b80601f01602080910402602001604051908101604052809291908181526020018280546106d09061222e565b801561071d5780601f106106f25761010080835404028352916020019161071d565b820191906000526020600020905b81548152906001019060200180831161070057829003601f168201915b5050505050905083565b610738610732610d0f565b82610dd0565b610777576040517f08c379a000000000000000000000000000000000000000000000000000000000815260040161076e90611fb6565b60405180910390fd5b610782838383610eae565b505050565b6000610793600661110a565b600061079f6006611120565b90506107ab338261112e565b60405180606001604052808281526020013373ffffffffffffffffffffffffffffffffffffffff16815260200184815250600760008381526020019081526020016000206000820151816000015560208201518160010160006101000a81548173ffffffffffffffffffffffffffffffffffffffff021916908373ffffffffffffffffffffffffffffffffffffffff160217905550604082015181600201908051906020019061085c9291906116ed565b5090505080915050919050565b61088483838360405180602001604052806000815250610a9b565b505050565b6000806002600084815260200190815260200160002060009054906101000a900473ffffffffffffffffffffffffffffffffffffffff169050600073ffffffffffffffffffffffffffffffffffffffff168173ffffffffffffffffffffffffffffffffffffffff161415610932576040517f08c379a000000000000000000000000000000000000000000000000000000000815260040161092990611f16565b60405180910390fd5b80915050919050565b60008073ffffffffffffffffffffffffffffffffffffffff168273ffffffffffffffffffffffffffffffffffffffff1614156109ac576040517f08c379a00000000000000000000000000000000000000000000000000000000081526004016109a390611ef6565b60405180910390fd5b600360008373ffffffffffffffffffffffffffffffffffffffff1673ffffffffffffffffffffffffffffffffffffffff168152602001908152602001600020549050919050565b606060018054610a029061222e565b80601f0160208091040260200160405190810160405280929190818152602001828054610a2e9061222e565b8015610a7b5780601f10610a5057610100808354040283529160200191610a7b565b820191906000526020600020905b815481529060010190602001808311610a5e57829003601f168201915b5050505050905090565b610a97610a90610d0f565b838361114c565b5050565b610aac610aa6610d0f565b83610dd0565b610aeb576040517f08c379a0000000000000000000000000000000000000000000000000000000008152600401610ae290611fb6565b60405180910390fd5b610af7848484846112b9565b50505050565b6060600760008381526020019081526020016000206002018054610b209061222e565b80601f0160208091040260200160405190810160405280929190818152602001828054610b4c9061222e565b8015610b995780601f10610b6e57610100808354040283529160200191610b99565b820191906000526020600020905b815481529060010190602001808311610b7c57829003601f168201915b50505050509050919050565b6000600560008473ffffffffffffffffffffffffffffffffffffffff1673ffffffffffffffffffffffffffffffffffffffff16815260200190815260200160002060008373ffffffffffffffffffffffffffffffffffffffff1673ffffffffffffffffffffffffffffffffffffffff16815260200190815260200160002060009054906101000a900460ff16905092915050565b60007f01ffc9a7000000000000000000000000000000000000000000000000000000007bffffffffffffffffffffffffffffffffffffffffffffffffffffffff1916827bffffffffffffffffffffffffffffffffffffffffffffffffffffffff1916149050919050565b60008073ffffffffffffffffffffffffffffffffffffffff166002600084815260200190815260200160002060009054906101000a900473ffffffffffffffffffffffffffffffffffffffff1673ffffffffffffffffffffffffffffffffffffffff1614159050919050565b600033905090565b816004600083815260200190815260200160002060006101000a81548173ffffffffffffffffffffffffffffffffffffffff021916908373ffffffffffffffffffffffffffffffffffffffff160217905550808273ffffffffffffffffffffffffffffffffffffffff16610d8a83610889565b73ffffffffffffffffffffffffffffffffffffffff167f8c5be1e5ebec7d5bd14f71427d1e84f3dd0314c0f7b2291e5b200ac8c7c3b92560405160405180910390a45050565b6000610ddb82610ca3565b610e1a576040517f08c379a0000000000000000000000000000000000000000000000000000000008152600401610e1190611eb6565b60405180910390fd5b6000610e2583610889565b90508073ffffffffffffffffffffffffffffffffffffffff168473ffffffffffffffffffffffffffffffffffffffff161480610e9457508373ffffffffffffffffffffffffffffffffffffffff16610e7c846104b8565b73ffffffffffffffffffffffffffffffffffffffff16145b80610ea55750610ea48185610ba5565b5b91505092915050565b8273ffffffffffffffffffffffffffffffffffffffff16610ece82610889565b73ffffffffffffffffffffffffffffffffffffffff1614610f24576040517f08c379a0000000000000000000000000000000000000000000000000000000008152600401610f1b90611f76565b60405180910390fd5b600073ffffffffffffffffffffffffffffffffffffffff168273ffffffffffffffffffffffffffffffffffffffff161415610f94576040517f08c379a0000000000000000000000000000000000000000000000000000000008152600401610f8b90611e76565b60405180910390fd5b610f9f838383611315565b610faa600082610d17565b6001600360008573ffffffffffffffffffffffffffffffffffffffff1673ffffffffffffffffffffffffffffffffffffffff1681526020019081526020016000206000828254610ffa9190612144565b925050819055506001600360008473ffffffffffffffffffffffffffffffffffffffff1673ffffffffffffffffffffffffffffffffffffffff168152602001908152602001600020600082825461105191906120ee565b92505081905550816002600083815260200190815260200160002060006101000a81548173ffffffffffffffffffffffffffffffffffffffff021916908373ffffffffffffffffffffffffffffffffffffffff160217905550808273ffffffffffffffffffffffffffffffffffffffff168473ffffffffffffffffffffffffffffffffffffffff167fddf252ad1be2c89b69c2b068fc378daa952ba7f163c4a11628f55a4df523b3ef60405160405180910390a4505050565b6001816000016000828254019250508190555050565b600081600001549050919050565b61114882826040518060200160405280600081525061131a565b5050565b8173ffffffffffffffffffffffffffffffffffffffff168373ffffffffffffffffffffffffffffffffffffffff1614156111bb576040517f08c379a00000000000000000000000000000000000000000000000000000000081526004016111b290611e96565b60405180910390fd5b80600560008573ffffffffffffffffffffffffffffffffffffffff1673ffffffffffffffffffffffffffffffffffffffff16815260200190815260200160002060008473ffffffffffffffffffffffffffffffffffffffff1673ffffffffffffffffffffffffffffffffffffffff16815260200190815260200160002060006101000a81548160ff0219169083151502179055508173ffffffffffffffffffffffffffffffffffffffff168373ffffffffffffffffffffffffffffffffffffffff167f17307eab39ab6107e8899845ad3d59bd9653f200f220920489ca2b5937696c31836040516112ac9190611df9565b60405180910390a3505050565b6112c4848484610eae565b6112d084848484611375565b61130f576040517f08c379a000000000000000000000000000000000000000000000000000000000815260040161130690611e36565b60405180910390fd5b50505050565b505050565b611324838361150c565b6113316000848484611375565b611370576040517f08c379a000000000000000000000000000000000000000000000000000000000815260040161136790611e36565b60405180910390fd5b505050565b60006113968473ffffffffffffffffffffffffffffffffffffffff166116da565b156114ff578373ffffffffffffffffffffffffffffffffffffffff1663150b7a026113bf610d0f565b8786866040518563ffffffff1660e01b81526004016113e19493929190611dad565b602060405180830381600087803b1580156113fb57600080fd5b505af192505050801561142c57506040513d601f19601f820116820180604052508101906114299190611a99565b60015b6114af573d806000811461145c576040519150601f19603f3d011682016040523d82523d6000602084013e611461565b606091505b506000815114156114a7576040517f08c379a000000000000000000000000000000000000000000000000000000000815260040161149e90611e36565b60405180910390fd5b805181602001fd5b63150b7a0260e01b7bffffffffffffffffffffffffffffffffffffffffffffffffffffffff1916817bffffffffffffffffffffffffffffffffffffffffffffffffffffffff191614915050611504565b600190505b949350505050565b600073ffffffffffffffffffffffffffffffffffffffff168273ffffffffffffffffffffffffffffffffffffffff16141561157c576040517f08c379a000000000000000000000000000000000000000000000000000000000815260040161157390611f36565b60405180910390fd5b61158581610ca3565b156115c5576040517f08c379a00000000000000000000000000000000000000000000000000000000081526004016115bc90611e56565b60405180910390fd5b6115d160008383611315565b6001600360008473ffffffffffffffffffffffffffffffffffffffff1673ffffffffffffffffffffffffffffffffffffffff168152602001908152602001600020600082825461162191906120ee565b92505081905550816002600083815260200190815260200160002060006101000a81548173ffffffffffffffffffffffffffffffffffffffff021916908373ffffffffffffffffffffffffffffffffffffffff160217905550808273ffffffffffffffffffffffffffffffffffffffff16600073ffffffffffffffffffffffffffffffffffffffff167fddf252ad1be2c89b69c2b068fc378daa952ba7f163c4a11628f55a4df523b3ef60405160405180910390a45050565b600080823b905060008111915050919050565b8280546116f99061222e565b90600052602060002090601f01602090048101928261171b5760008555611762565b82601f1061173457805160ff1916838001178555611762565b82800160010185558215611762579182015b82811115611761578251825591602001919060010190611746565b5b50905061176f9190611773565b5090565b5b8082111561178c576000816000905550600101611774565b5090565b60006117a361179e84612054565b61202f565b9050828152602081018484840111156117bb57600080fd5b6117c68482856121ec565b509392505050565b60006117e16117dc84612085565b61202f565b9050828152602081018484840111156117f957600080fd5b6118048482856121ec565b509392505050565b60008135905061181b816126c0565b92915050565b600081359050611830816126d7565b92915050565b600081359050611845816126ee565b92915050565b60008151905061185a816126ee565b92915050565b600082601f83011261187157600080fd5b8135611881848260208601611790565b91505092915050565b600082601f83011261189b57600080fd5b81356118ab8482602086016117ce565b91505092915050565b6000813590506118c381612705565b92915050565b6000602082840312156118db57600080fd5b60006118e98482850161180c565b91505092915050565b6000806040838503121561190557600080fd5b60006119138582860161180c565b92505060206119248582860161180c565b9150509250929050565b60008060006060848603121561194357600080fd5b60006119518682870161180c565b93505060206119628682870161180c565b9250506040611973868287016118b4565b9150509250925092565b6000806000806080858703121561199357600080fd5b60006119a18782880161180c565b94505060206119b28782880161180c565b93505060406119c3878288016118b4565b925050606085013567ffffffffffffffff8111156119e057600080fd5b6119ec87828801611860565b91505092959194509250565b60008060408385031215611a0b57600080fd5b6000611a198582860161180c565b9250506020611a2a85828601611821565b9150509250929050565b60008060408385031215611a4757600080fd5b6000611a558582860161180c565b9250506020611a66858286016118b4565b9150509250929050565b600060208284031215611a8257600080fd5b6000611a9084828501611836565b91505092915050565b600060208284031215611aab57600080fd5b6000611ab98482850161184b565b91505092915050565b600060208284031215611ad457600080fd5b600082013567ffffffffffffffff811115611aee57600080fd5b611afa8482850161188a565b91505092915050565b600060208284031215611b1557600080fd5b6000611b23848285016118b4565b91505092915050565b611b3581612178565b82525050565b611b448161218a565b82525050565b6000611b55826120b6565b611b5f81856120cc565b9350611b6f8185602086016121fb565b611b788161231e565b840191505092915050565b6000611b8e826120c1565b611b9881856120dd565b9350611ba88185602086016121fb565b611bb18161231e565b840191505092915050565b6000611bc96032836120dd565b9150611bd48261232f565b604082019050919050565b6000611bec601c836120dd565b9150611bf78261237e565b602082019050919050565b6000611c0f6024836120dd565b9150611c1a826123a7565b604082019050919050565b6000611c326019836120dd565b9150611c3d826123f6565b602082019050919050565b6000611c55602c836120dd565b9150611c608261241f565b604082019050919050565b6000611c786038836120dd565b9150611c838261246e565b604082019050919050565b6000611c9b602a836120dd565b9150611ca6826124bd565b604082019050919050565b6000611cbe6029836120dd565b9150611cc98261250c565b604082019050919050565b6000611ce16020836120dd565b9150611cec8261255b565b602082019050919050565b6000611d04602c836120dd565b9150611d0f82612584565b604082019050919050565b6000611d276029836120dd565b9150611d32826125d3565b604082019050919050565b6000611d4a6021836120dd565b9150611d5582612622565b604082019050919050565b6000611d6d6031836120dd565b9150611d7882612671565b604082019050919050565b611d8c816121e2565b82525050565b6000602082019050611da76000830184611b2c565b92915050565b6000608082019050611dc26000830187611b2c565b611dcf6020830186611b2c565b611ddc6040830185611d83565b8181036060830152611dee8184611b4a565b905095945050505050565b6000602082019050611e0e6000830184611b3b565b92915050565b60006020820190508181036000830152611e2e8184611b83565b905092915050565b60006020820190508181036000830152611e4f81611bbc565b9050919050565b60006020820190508181036000830152611e6f81611bdf565b9050919050565b60006020820190508181036000830152611e8f81611c02565b9050919050565b60006020820190508181036000830152611eaf81611c25565b9050919050565b60006020820190508181036000830152611ecf81611c48565b9050919050565b60006020820190508181036000830152611eef81611c6b565b9050919050565b60006020820190508181036000830152611f0f81611c8e565b9050919050565b60006020820190508181036000830152611f2f81611cb1565b9050919050565b60006020820190508181036000830152611f4f81611cd4565b9050919050565b60006020820190508181036000830152611f6f81611cf7565b9050919050565b60006020820190508181036000830152611f8f81611d1a565b9050919050565b60006020820190508181036000830152611faf81611d3d565b9050919050565b60006020820190508181036000830152611fcf81611d60565b9050919050565b6000602082019050611feb6000830184611d83565b92915050565b60006060820190506120066000830186611d83565b6120136020830185611b2c565b81810360408301526120258184611b83565b9050949350505050565b600061203961204a565b90506120458282612260565b919050565b6000604051905090565b600067ffffffffffffffff82111561206f5761206e6122ef565b5b6120788261231e565b9050602081019050919050565b600067ffffffffffffffff8211156120a05761209f6122ef565b5b6120a98261231e565b9050602081019050919050565b600081519050919050565b600081519050919050565b600082825260208201905092915050565b600082825260208201905092915050565b60006120f9826121e2565b9150612104836121e2565b9250827fffffffffffffffffffffffffffffffffffffffffffffffffffffffffffffffff0382111561213957612138612291565b5b828201905092915050565b600061214f826121e2565b915061215a836121e2565b92508282101561216d5761216c612291565b5b828203905092915050565b6000612183826121c2565b9050919050565b60008115159050919050565b60007fffffffff0000000000000000000000000000000000000000000000000000000082169050919050565b600073ffffffffffffffffffffffffffffffffffffffff82169050919050565b6000819050919050565b82818337600083830152505050565b60005b838110156122195780820151818401526020810190506121fe565b83811115612228576000848401525b50505050565b6000600282049050600182168061224657607f821691505b6020821081141561225a576122596122c0565b5b50919050565b6122698261231e565b810181811067ffffffffffffffff82111715612288576122876122ef565b5b80604052505050565b7f4e487b7100000000000000000000000000000000000000000000000000000000600052601160045260246000fd5b7f4e487b7100000000000000000000000000000000000000000000000000000000600052602260045260246000fd5b7f4e487b7100000000000000000000000000000000000000000000000000000000600052604160045260246000fd5b6000601f19601f8301169050919050565b7f4552433732313a207472616e7366657220746f206e6f6e20455243373231526560008201527f63656976657220696d706c656d656e7465720000000000000000000000000000602082015250565b7f4552433732313a20746f6b656e20616c7265616479206d696e74656400000000600082015250565b7f4552433732313a207472616e7366657220746f20746865207a65726f2061646460008201527f7265737300000000000000000000000000000000000000000000000000000000602082015250565b7f4552433732313a20617070726f766520746f2063616c6c657200000000000000600082015250565b7f4552433732313a206f70657261746f7220717565727920666f72206e6f6e657860008201527f697374656e7420746f6b656e0000000000000000000000000000000000000000602082015250565b7f4552433732313a20617070726f76652063616c6c6572206973206e6f74206f7760008201527f6e6572206e6f7220617070726f76656420666f7220616c6c0000000000000000602082015250565b7f4552433732313a2062616c616e636520717565727920666f7220746865207a6560008201527f726f206164647265737300000000000000000000000000000000000000000000602082015250565b7f4552433732313a206f776e657220717565727920666f72206e6f6e657869737460008201527f656e7420746f6b656e0000000000000000000000000000000000000000000000602082015250565b7f4552433732313a206d696e7420746f20746865207a65726f2061646472657373600082015250565b7f4552433732313a20617070726f76656420717565727920666f72206e6f6e657860008201527f697374656e7420746f6b656e0000000000000000000000000000000000000000602082015250565b7f4552433732313a207472616e73666572206f6620746f6b656e2074686174206960008201527f73206e6f74206f776e0000000000000000000000000000000000000000000000602082015250565b7f4552433732313a20617070726f76616c20746f2063757272656e74206f776e6560008201527f7200000000000000000000000000000000000000000000000000000000000000602082015250565b7f4552433732313a207472616e736665722063616c6c6572206973206e6f74206f60008201527f776e6572206e6f7220617070726f766564000000000000000000000000000000602082015250565b6126c981612178565b81146126d457600080fd5b50565b6126e08161218a565b81146126eb57600080fd5b50565b6126f781612196565b811461270257600080fd5b50565b61270e816121e2565b811461271957600080fd5b5056fea26469706673582212207e1dbd17165d49c16f5899951e1d6973f1a30eef6ec3c2f772e44a5aa73ed22c64736f6c63430008010033",
  "immutableReferences": {},
  "source": "// SPDX-License-Identifier: MIT\r\npragma solidity ^0.8.0;\r\nimport \"../node_modules/@openzeppelin/contracts/token/ERC721/ERC721.sol\";\r\nimport \"../node_modules/@openzeppelin/contracts/utils/Counters.sol\";\r\n\r\ncontract RaribleToken is ERC721 {\r\n    using Counters for Counters.Counter;\r\n    Counters.Counter private _tokenIds;\r\n\r\n    constructor () ERC721(\"RaribleToken\",\"RA\"){}\r\n\r\n    struct Item{\r\n        uint256 id;\r\n        address creator;\r\n        string uri;\r\n    }\r\n\r\n    mapping (uint256 => Item) public Items;\r\n    function createItem(string memory uri) public returns(uint256){\r\n        _tokenIds.increment();\r\n        uint256 newItemId = _tokenIds.current();\r\n        _safeMint(msg.sender, newItemId);\r\n        Items[newItemId] = Item(newItemId, msg.sender, uri);\r\n        \r\n        return newItemId;\r\n    }\r\n\r\n    function tokenURI(uint256 tokenId) public view override returns (string memory) {\r\n        // require(_exists(tokenId), \"ERC721Metadata: URI query for nonexistent token\");\r\n\r\n        return Items[tokenId].uri;\r\n    }\r\n}",
  "sourcePath": "G:\\Learning\\rarible\\contracts\\raribleToken.sol",
  "compiler": {
    "name": "solc",
    "version": "0.8.1+commit.df193b15.Emscripten.clang"
  },
  "schemaVersion": "3.4.2",
  "updatedAt": "2021-12-18T06:01:50.743Z",
  "networkType": "ethereum",
  "devdoc": {
    "kind": "dev",
    "methods": {
      "approve(address,uint256)": {
        "details": "See {IERC721-approve}."
      },
      "balanceOf(address)": {
        "details": "See {IERC721-balanceOf}."
      },
      "getApproved(uint256)": {
        "details": "See {IERC721-getApproved}."
      },
      "isApprovedForAll(address,address)": {
        "details": "See {IERC721-isApprovedForAll}."
      },
      "name()": {
        "details": "See {IERC721Metadata-name}."
      },
      "ownerOf(uint256)": {
        "details": "See {IERC721-ownerOf}."
      },
      "safeTransferFrom(address,address,uint256)": {
        "details": "See {IERC721-safeTransferFrom}."
      },
      "safeTransferFrom(address,address,uint256,bytes)": {
        "details": "See {IERC721-safeTransferFrom}."
      },
      "setApprovalForAll(address,bool)": {
        "details": "See {IERC721-setApprovalForAll}."
      },
      "supportsInterface(bytes4)": {
        "details": "See {IERC165-supportsInterface}."
      },
      "symbol()": {
        "details": "See {IERC721Metadata-symbol}."
      },
      "tokenURI(uint256)": {
        "details": "See {IERC721Metadata-tokenURI}."
      },
      "transferFrom(address,address,uint256)": {
        "details": "See {IERC721-transferFrom}."
      }
    },
    "version": 1
  },
  "userdoc": {
    "kind": "user",
    "methods": {},
    "version": 1
  }
}